{
  "contractName": "Constest",
  "abi": [
    {
      "constant": true,
      "inputs": [],
      "name": "contestant",
      "outputs": [
        {
          "name": "",
          "type": "string"
        }
      ],
      "payable": false,
      "stateMutability": "view",
      "type": "function"
    },
    {
      "constant": false,
      "inputs": [],
      "name": "Contest",
      "outputs": [],
      "payable": false,
      "stateMutability": "nonpayable",
      "type": "function"
    }
  ],
  "bytecode": "0x608060405234801561001057600080fd5b50610285806100206000396000f3fe608060405234801561001057600080fd5b50600436106100365760003560e01c80632213eed31461003b578063f1a5158b146100be575b600080fd5b6100436100c8565b6040518080602001828103825283818151815260200191508051906020019080838360005b83811015610083578082015181840152602081019050610068565b50505050905090810190601f1680156100b05780820380516001836020036101000a031916815260200191505b509250505060405180910390f35b6100c6610166565b005b60008054600181600116156101000203166002900480601f01602080910402602001604051908101604052809291908181526020018280546001816001161561010002031660029004801561015e5780601f106101335761010080835404028352916020019161015e565b820191906000526020600020905b81548152906001019060200180831161014157829003601f168201915b505050505081565b6040518060400160405280600381526020017f546f6d0000000000000000000000000000000000000000000000000000000000815250600090805190602001906101b19291906101b4565b50565b828054600181600116156101000203166002900490600052602060002090601f016020900481019282601f106101f557805160ff1916838001178555610223565b82800160010185558215610223579182015b82811115610222578251825591602001919060010190610207565b5b5090506102309190610234565b5090565b61025691905b8082111561025257600081600090555060010161023a565b5090565b9056fea165627a7a723058206b145bc093c1e9b3a72d8cbf47da8b1e7fa9d640d0f2f8f1e3bd620dcd3568590029",
  "source": "pragma solidity 0.5.8;\r\n\r\n//creating the contract \r\ncontract Constest{\r\n\r\n\t//declaring variables\r\n\tstring public contestant;\r\n\r\n\r\n\t// declaring constructor\r\n\tfunction Contest() public {\r\n\t\tcontestant = \"Tom\";\t\t\r\n\t} \r\n}",
  "sourcePath": "C:/Users/slavnic/Documents/BlockChain/BCMooc/contest/contracts/Contest.sol",
  "compiler": {
    "name": "solc",
    "version": "0.5.8+commit.23d335f2.Emscripten.clang"
  },
  "schemaVersion": "3.0.10",
  "updatedAt": "2019-06-03T06:07:55.234Z",
  "devdoc": {
    "methods": {}
  },
  "userdoc": {
    "methods": {}
  }
}